:020000040800F2
:1000000038F80020D5010008730A0008310A0008FA
:10001000710A000809050008491B000800000000DB
:100020000000000000000000000000001F14000895
:100030000B05000800000000AD100008E1140008E6
:10004000EF010008EF010008EF010008EF010008D0
:10005000EF010008EF0100080D050008EF0100089E
:10006000450500087D050008B5050008EF010008FA
:10007000EF010008EF010008EF010008EF010008A0
:10008000EF010008EF010008EF010008EF01000890
:10009000EF010008EF010008EF0100083106000839
:1000A000EF010008EF010008EF010008EF01000870
:1000B000EF01000835150008EF010008EF01000806
:1000C000EF010008EF010008EF010008EF01000850
:1000D000EF010008AD190008EF010008EF0100086A
:1000E000EF010008EF010008EF010008EF01000830
:1000F000EF010008EF010008EF010008EF01000820
:10010000EF010008EF01000819160008EF010008D0
:10011000EF010008EF010008A1160008EF01000838
:10012000EF010008EF010008EF010008EF010008EF
:1001300000F002F800F03FF80AA090E8000C8244BA
:100140008344AAF10107DA4501D100F034F8AFF297
:10015000090EBAE80F0013F0010F18BFFB1A43F0A5
:1001600001031847E424000004250000103A24BFCE
:1001700078C878C1FAD8520724BF30C830C144BF0C
:1001800004680C607047000000230024002500264E
:10019000103A28BF78C1FBD8520728BF30C148BFEA
:1001A0000B607047642900F07780002070471FB50E
:1001B0001FBD10B510BD00F05DF91146FFF7F7FF48
:1001C00001F0A8FD00F07BF903B4FFF7F2FF03BCD8
:1001D00001F0BBFC0948804709480047FEE7FEE7FD
:1001E000FEE7FEE7FEE7FEE7FEE7FEE7FEE7FEE7E7
:1001F00004480549054A064B70470000E51400080D
:100200003101000838F2002038F8002038F40020CE
:1002100038F40020704700000FB4044910B503AA59
:10022000029800F0F9F810BC5DF814FB20000020E3
:100230002DE9F0410E460446002020622046E16888
:10024000884730B3252805D0D4E901219047206A9A
:10025000401CF2E7E168204600278847050018D0D7
:10026000A5F14100192802D820354FF40067324625
:10027000294620462760FFF795FF40B1012804D0AA
:10028000F61D26F007060836D8E7361DD6E72846BD
:10029000DAE7206ABDE8F0812DE9F0410646002446
:1002A00010687529314616A510D0AFF300800028DC
:1002B00002DA404213A507E031688A0701D512A58A
:1002C00002E0490704D511A5012401E0AFF3008045
:1002D00000210A2206F1240709E0B0FBF2FCB0FB82
:1002E000F2F302FB1C00303078541846491C0028F9
:1002F000F3D123462A463046BDE8F04100F033B83A
:10030000000000002D0000002B0000002000000075
:100310004FF0000200B5134694469646203922BF9E
:10032000A0E80C50A0E80C50B1F12001BFF4F7AFE9
:10033000090728BFA0E80C5048BF0CC05DF804EBCB
:10034000890028BF40F8042B08BF704748BF20F839
:10035000022B11F0804F18BF00F8012B7047704737
:100360007047704770472DE9F0470D469946924611
:10037000044600F124080168880604D5E06921F0EC
:100380001001216000E00120A84201DD471B00E0D0
:100390000027A1697A1902EB0900081AA0612078E8
:1003A000C00602D42046AFF30080002608E0D4E95E
:1003B00001211AF806009047206A401C761C206232
:1003C0004E45F4DB2078C0060AD52046AFF3008006
:1003D00006E0D4E9012130209047206A401C2062C9
:1003E000381EA7F10107F4DC07E0D4E9012118F871
:1003F00005009047206A401C2062281EA5F10105D7
:10040000F3DC2046AFF300802078000602D50220FE
:10041000BDE8F0870120FBE7074B70B50D467B4434
:1004200000F011F80446284600F020F810B14FF013
:10043000FF3070BD204670BDDB18000001694A1C0A
:1004400002610878704700B58FB0CDE90131002115
:10045000059105497944CDE9031011466846FFF737
:10046000E7FE0FB000BD0000E5FFFFFF007B00F0DE
:1004700080007047754600F029F8AE4605006946D1
:10048000534620F00700854618B020B5FFF7B0FEB0
:10049000BDE820404FF000064FF000074FF0000885
:1004A0004FF0000B21F00701AC46ACE8C009ACE806
:1004B000C009ACE8C009ACE8C0098D4670470446E5
:1004C000AFF300802046FFF77FFE00000048704732
:1004D000D4F100200948816941F008018161084890
:1004E000016821F00F010160016841F00301016022
:1004F00004490020C1F8A00170470000001002402C
:10050000040C014000802142FEE7704710B50A202C
:1005100001F08AFB0121094800F088F9012806D181
:100520000749D1F8A00138B10020C1F8A001BDE809
:100530001040012000F09EB80120F6E700080140BD
:100540000080214210B50A2001F06EFB0421094809
:1005500000F06CF930B90849D1F8940138B10020A5
:10056000C1F89401BDE81040042000F083B80120D8
:10057000F6E70000001801400080214210B50A2073
:1005800001F052FB0821094800F050F930B9084940
:10059000D1F8940138B10020C1F89401BDE81040B1
:1005A000082000F067B80120F6E7000000180140BD
:1005B0000000234210B50A2001F036FB1021094843
:1005C00000F034F930B90849D1F8940138B100206D
:1005D000C1F89401BDE81040102000F04BB8012094
:1005E000F6E7000000180140008021423EB50821D6
:1005F000002000F08DF84FF48070002400908DF8FA
:10060000044008208DF8050001258DF80650684645
:1006100000F046F817208DF808008DF809408DF895
:100620000A408DF80B5002A800F024FA3EBD0000ED
:1006300010B54FF48074204600F022F801280DD147
:10064000094A0020C2F898010121C2F89811074810
:10065000C0F88C1106480178491C01702046BDE89D
:10066000104000F007B800000080224200802142C4
:100670001400002001490860704700001404014084
:10068000064A014600201268044B0A4014331B68D6
:100690000B4202D0002A00D0012070470004014024
:1006A00030B51A4A8379016853B313688B431360DA
:1006B000111D0B680468A3430B60017911440B689A
:1006C000046823430B60114B083319680468A14385
:1006D00019601C1D21680568A94321604179102912
:1006E00005D011440A68006802430A6030BD1968E9
:1006F000026811431960216800680143216030BD20
:100700000079104402688A43026030BD0004014051
:1007100010B58A0721F003040649120F21440F2364
:100720008C6893409C438C608B68904003438B6043
:1007300010BD000000000140F0B5CC78002204F0AC
:100740000F03E40601D58C7823430C784FF00F0C8F
:1007500014F0FF0F4FF0010E1BD005680E880EFA43
:1007600002F42640A64210D196000CFA06F725EABC
:10077000070703FA06F5CE783D43282E02D0482E0F
:1007800002D002E0446100E00461521C082AE5D373
:1007900005600A88FF2A1CD94468002202F1080675
:1007A0000EFA06F50E882E40AE420ED196000CFAD7
:1007B00006F7BC4303FA06F7CE783C43282E00D157
:1007C0004561CE78482E00D10561521C082AE5D338
:1007D0004460F0BDF0B5144C002801DAE36900E094
:1007E0006368450D2E0185B2C0F30157B540C0F3D3
:1007F0000342032F05D0C6020AD503269640B34311
:1008000007E023F07062636823F07063636002E0C6
:10081000AB4343F0706201B12A43002801DAE26180
:10082000F0BD6260F0BD0000000001400246002003
:1008300092680A4200D0012070474161704701610F
:10084000704700002DE9FE4F00278DF804708346A5
:100850000760444800F08EF8DFF808A1002606EB98
:10086000460000250AEB80093F4959F82500084257
:1008700070D009EB8500C1780B066BD441F0800184
:10088000A8463446C17014E00298C7F30E42C0F384
:100890000E41914200D9074604EB44010AEB810165
:1008A00001EB8800641CC17841F08001C1709DF8A3
:1008B000048001A80090434622462A4902A801F07C
:1008C000E7F90028E0D104EB44010AEB810101EBD8
:1008D0008800C17841F08001C170C7F30E408046A6
:1008E00001F01DFC4FF0FF3201F026FE00221F4BED
:1008F00001F0B8FC2ED2A11BA8EB010001F0F8FB1F
:1009000021F0004100221A4B01F01CFC22D240468B
:1009100001F005FC4FF0FF3201F00EFE04460D46DB
:10092000F8B201F0FCFB22462B4601F025FB01F05A
:10093000F1FACBF80000C7F3072001F0B3FDCBF8C4
:1009400004002046294601F0E5FACBF80800BDE88E
:10095000FE8FFFE76D1C032D86DB761CF02EFFF665
:100960007EAFF4E794E600200000FF7F0000F83F30
:10097000000039402DE9F0470026894607463446F5
:1009800035464FF434612848FFF7C2FCDFF89C80FD
:100990000020C0EB0012002109EB021298F800C001
:1009A000535C63450FD2012D1FD100EB400307EBD1
:1009B000830303EB8403002553F804CC66F31E4C39
:1009C00043F804CC11E015B1012D0DD00DE000EB82
:1009D000400307EB8303012503F8241003EB840392
:1009E000641C5870E4B20026761CEF2911D192F8ED
:1009F000EF3098F800C063450BD800EB400307EBDD
:100A0000830303EB840353F804CC66F31E4C43F8D2
:100A100004CC491CF029C1DB0024401C2546F028E9
:100A2000B7DBBDE8F087000094E600203800002026
:100A3000FEE7000008B50121442000F045FB1C2022
:100A4000ADF8000048208DF8030069460648FFF71E
:100A500073FE0120ADF8000028208DF803006946E0
:100A60000248FFF769FE08BD001801400008014078
:100A7000FEE7704730B50F23C27801780125F2B147
:100A8000144A126801F1E02102F4E062C2F5E0626A
:100A9000120AC2F10404D3404278A24084781C4078
:100AA0001443220181F80024007800F01F018D40DA
:100AB0004009800000F1E020C0F8005130BD01F095
:100AC0001F0085404809800000F1E020C0F88051F7
:100AD00030BD00000CED00E0024908430249086007
:100AE000704700000000FA050CED00E070B500252D
:100AF00005F1B000C0B2002100F010F90021084655
:100B000000F00CF90021102000F008F90024012168
:100B1000002000F003F9641CE4B2802CF7D36D1CB4
:100B2000EDB2082DE4D370BD2DE9F0471F46904685
:100B30000E4682460025DDF8209011E031465046F1
:100B400000F0D6F8544607E019F8050001216D1CA5
:100B500000F0E4F8641CE4B24445F5D3761CF6B228
:100B6000BE42EBD3BDE8F087F8B501214FF4947095
:100B700000F0AAFA4FF4FC76ADF8006010208DF872
:100B80000300584D03248DF8024069462846FFF7BC
:100B9000D3FD31462846FFF752FEADF80040524CD7
:100BA00069462046FFF7C8FD03212046FFF747FEB0
:100BB0004E4E4FF40044ADF8004069463046FFF712
:100BC000BBFD21463046FFF73AFE10212846FFF7CD
:100BD00036FE642001F028F810212846FFF72DFE8C
:100BE000642001F021F810212846FFF728FE00219B
:100BF000AE2000F093F80021084600F08FF80021A5
:100C0000102000F08BF80021402000F087F8002130
:100C1000812000F083F80021CF2000F07FF8002130
:100C2000A12000F07BF80021C82000F077F8002117
:100C3000A62000F073F80021A82000F06FF8002132
:100C40003F2000F06BF80021D32000F067F800216E
:100C5000084600F063F80021D52000F05FF800217D
:100C6000802000F05BF80021D92000F057F8002127
:100C7000F12000F053F80021DA2000F04FF80021B5
:100C8000122000F04BF80021DB2000F047F8002193
:100C9000402000F043F80021202000F03FF8002120
:100CA000022000F03BF800218D2000F037F80021F1
:100CB000142000F033F80021A42000F02FF80021C8
:100CC000A62000F02BF80021AF2000F027F800212B
:100CD000AF2000F023F8FFF709FF0021084600F0DD
:100CE00007F8F8BD00140140001001400020014049
:100CF00010B50446B031C8B2002100F00FF8102042
:100D000040EA1410002100F009F804F00F00BDE8DB
:100D1000104040F001000021AFF3008070B5194E83
:100D2000054600294FF02001304602D0FFF787FD2D
:100D300001E0FFF782FD08213046FFF77EFD002429
:100D400040213046FFF779FD28064FF080013046FC
:100D500002D5FFF774FD01E0FFF76FFD402130463B
:100D6000FFF76DFD6806641C050EE4B2082CE7D39E
:100D700008213046FFF763FD3046BDE87040202172
:100D8000FFF75DBD00140140F8B50024012140F2D9
:100D90003D1000F099F94FF48075ADF800504826E9
:100DA0008DF803600320424F8DF8020069463846F3
:100DB000FFF7C2FC29463846FFF741FD1820ADF881
:100DC00000003C4F10258DF8035069463846FFF768
:100DD000B3FC18213846FFF732FDFF20ADF80000C4
:100DE0008DF8036069463448FFF7A6FC4020ADF853
:100DF0000000324E8DF8035069463046FFF79CFCE8
:100E000040213046FFF71BFD4FF44046ADF800602F
:100E10008DF803502A4D69462846FFF78DFC314670
:100E20002846FFF70CFD01212648FFF7D3FC00F010
:100E3000A1F98021122000F0D3FA08B10120F8BDF9
:100E4000322000F0F1FE1C2000F026FA4FF6FF756C
:100E500005EA00261D2000F01FFA40EA0601A1F570
:100E6000FE40A23803D018A0FFF7D6F9E6E70A2023
:100E700000F012FA05EA00250B2000F00DFA40EA16
:100E80000501A1F5EE40213804D012A0FFF7C4F906
:100E90000220F8BD124D05EB4400417815F814000E
:100EA00000F09EFA641CA4B2412CF4D30020F8BDDB
:100EB00000080140000C01400010014000140140F6
:100EC00000200140000230004D49443A25640D0ADB
:100ED000000000004849443A25640D0A0000000063
:100EE000C42500082DE9F0470C4605464AB3C5F570
:100EF000207000EBD070C0F34F07C4F5F07000EB2A
:100F0000D070C0F34F060621122000F069FA2321A9
:100F1000172000F065FAA021182000F061FA0721DF
:100F2000192000F05DFAF0211A2000F059FA002192
:100F3000322000F055FAA021292000F051FAF021CA
:100F400028E0C5F5A07000EBD070C0F34F07C4F1E6
:100F5000F00000EBD070C0F34F064621122000F0E5
:100F60003FFA3F21172000F03BFA5021182000F0F3
:100F700037FA0321192000F033FA78211A2000F003
:100F80002FFA0021322000F02BFA5021292000F006
:100F900027FA78212C2000F023FA172000F07CF9A2
:100FA00000EB9700C1B2172000F01AFAC5F38701D1
:100FB0008A46182000F014FA192000F06DF900EBB1
:100FC0005600C1B2192000F00BFAC4F3470189465C
:100FD0001A2000F005FA322000F05EF98046F00792
:100FE000400E07F0030104F0010640EA011040EA58
:100FF000860105F00304214341EA0801322000F094
:10100000EFF95146292000F0EBF949462C2000F079
:10101000E7F92A2000F040F944EA080444EA86018E
:10102000BDE8F0472A2000F0DBB900002DE9F043CD
:10103000DFF8608098F80000002829D016484FF0AB
:101040000009C0F8B891154D10222A602E1F326099
:101050002A600121C0F8B8113260114FDFF844C096
:101060004946C1EB011300200CEB03142A60BB6856
:10107000235432602A603260401CF028F6D3491CA9
:10108000F029EED3084988F800900878401C0870D1
:10109000BDE8F0831400002000002442140C01403D
:1010A0000010014060000020170000207047000081
:1010B000044A0029D16901D0014300E08143D16194
:1010C0007047000000100240044A0029916901D0D5
:1010D000014300E08143916170470000001002402D
:1010E00030B5204A5168204B11F00C0103D004297F
:1010F00001D0082901D0036012E05168536801F45F
:1011000070114FF0020413F4803F04EB914102D0C0
:1011100053689B0301D5154B00E0134B5943016005
:1011200051680F2303EA1111114B5C5C0168E14027
:1011300041605468072505EA14241C5D21FA04F473
:101140008460546805EAD4241B5DD940C1605268AC
:10115000032303EA9232064B1B1F9A5CB1FBF2F1A8
:10116000016130BD0010024000127A0000093D000C
:101170002800002038B501214FF49070FFF7A4FF3C
:101180004FF40055ADF8005048208DF803000320BF
:10119000114C8DF8020069462046FFF7CDFA29462A
:1011A0002046FFF74CFB0820ADF8000010200B4D47
:1011B0008DF8030069462846FFF7BEFA0821284645
:1011C000FFF73DFB606820F470006060606840F4E9
:1011D0004010606038BD0000002001400014014054
:1011E00070B5322000F03AFD0C4D0120C5F8B40175
:1011F0000B4EC6F88C01322005F5DA7506F5C67679
:1012000000F02CFD00243460322000F027FD2C601B
:10121000BDE87040322000F021BD000000002442F3
:10122000008022422DE9F047184F0024786820F40E
:1012300070007860786840F400007860DFF85090C3
:10124000144E08254FF00108A246322000F006FD9A
:10125000C6F88C816006040ED9F8340108B1641C0C
:10126000E4B2322000F0FAFCC6F88CA16D1E15F035
:10127000FF05EAD1786820F470007860786840F45F
:10128000401078602046BDE8F08700000020014053
:10129000000024420080224210B5044600F022F8EB
:1012A000422000F055F8642000F0D8FC204600F001
:1012B0004FF8642000F0D2FC00F02EF8642000F01B
:1012C000CDFC00F00FF8432000F042F8642000F05D
:1012D000C5FCFFF7A7FF0446FFF782FF00F01CF8EC
:1012E000204610BD70B50A4E0120C6F8B401094D64
:1012F000C5F88C01322005F5C67506F5DA7600F0E2
:10130000ADFC00243460322000F0A8FC2C6070BDDD
:10131000000024420080224270B50B4C0020C4F82B
:10132000B401322004F5DA7400F098FC0748012576
:10133000C0F88C51322000F091FC2560BDE870406F
:10134000322000F08BBC00000000244200802242CA
:101350002DE9F04700241F4E1F4F0546A0464FF0D1
:101360000109280601D5484600E04046C6F8B40108
:101370006806050E322000F071FCC7F88C9132200F
:1013800000F06CFCC7F88C81641CE4B2082CE8D334
:10139000124C606820F470006060606840F40000E7
:1013A0006060322000F05AFCC7F88C91322000F0C7
:1013B00055FCD6F8340100B10120C7F88C81616872
:1013C00021F470016160616841F440116160BDE821
:1013D000F0870000000024420080224200200140EB
:1013E00070B50D4606460024FFF77CFF4220FFF74C
:1013F000AFFF00B10124642000F030FC3046FFF75D
:10140000A7FF00B10124642000F028FC2846FFF764
:101410009FFF00B10124FFF77FFF204670BD70479A
:101420000CB50022264800920192016841F48031F7
:1014300001604FF4A063016801F40031019100994B
:10144000491C0091019911B900999942F3D10168A1
:10145000890333D5012101911A490A6842F010022B
:101460000A600A6822F003020A600A6842F0020277
:101470000A604168416041684160416841F48061AF
:101480004160416821F47C114160416841F4E811F8
:101490004160016841F08071016001688901FCD5FB
:1014A000416821F003014160416841F0020141605F
:1014B0004168C1F381010229FAD10CBD01920CBD32
:1014C00000100240002002404FF0E021042808698B
:1014D00003D020F004000861704740F00400FAE7F0
:1014E000704700000F4810B5016841F0010101602C
:1014F00041680D4A1140416001680C4A1140016089
:10150000016821F480210160416821F4FE014160FD
:101510004FF41F018160FFF783FF05494FF0006022
:10152000086010BD001002400000FFF8FFFFF6FE4B
:1015300008ED00E010B50A4C0121204600F0D3F878
:1015400000280AD00121204600F0BEF80549D1F854
:10155000940118B10020C1F8940110BD0120FAE7F0
:10156000000400400000234230B50D46044689B017
:1015700001210220FFF79CFD01210520FFF7A4FDBA
:1015800001210920FFF7A0FD01212048FFF722F9E2
:101590000322ADF81C2018208DF81F008DF81E20A6
:1015A00007A91B48FFF7C8F8ADF81440ADF8105074
:1015B0000024184DADF81640ADF8124004A9284695
:1015C00000F0A6F97020ADF800000120ADF802008F
:1015D000ADF80640ADF808406946284600F090F89E
:1015E0006946284600F0D2F86946284600F00EF910
:1015F0006946284600F048F90821284600F076F9A7
:101600000121284600F063F809B030BD00081A0037
:10161000000C01400004004070B51F4C1F4D2078A5
:10162000000633D40121284600F05DF838B1217856
:10163000480604D5C843800612D0491C21700221F7
:10164000284600F050F808B3217848060FD541F03D
:1016500080002070284600F044F86080002112E0ED
:1016600041F0800020704FF6FF706080E7E70020B7
:10167000207060800146284600F047F9207802215A
:1016800040F040002070284600F07AF82846BDE877
:101690007040032100F018B816000020000C004034
:1016A00010B5074C0121204600F01DF810B1054986
:1016B000002048702046BDE81040012100F004B829
:1016C0000010004016000020C94301827047002925
:1016D000018802D041F0010101E021F00101018007
:1016E0007047808E704702460020138A92890B4211
:1016F00002EA010202D0002A00D001207047000057
:1017000030B5028C22F001020284028C8388048BA3
:1017100022F0020224F073050C882C430D89154336
:101720004A882A43114DA8420BD0114DA84208D037
:10173000104DA84205D0104DA84202D00F4DA8422E
:101740000DD122F008054A8923F440732A4322F080
:1017500004058A882A438D891D43CB892B438380C6
:101760000483C9888186028430BD0000002C0140BA
:101770000034014000400140004401400048014065
:10178000028C22F002020A430284704770B5028C78
:1017900022F010020284028C8388048B0D8824F4CA
:1017A000E6464FF6FF7404EA052535430E8922F01C
:1017B000200204EA061616434A8804EA021232435B
:1017C000104EB04202D0104EB04215D122F0800629
:1017D0004A8923F4406304EA0212324322F04006AD
:1017E0008A8804EA021232438E8904EA86061E437E
:1017F000CB8904EA8303334383800583C988018747
:10180000028470BD002C01400034014070B5028C90
:1018100022F480720284028C8388848B0D8824F0E9
:10182000730425430E894FF6FF7422F4007204EA14
:10183000062616434A8804EA02223243104EB0427A
:1018400002D0104EB04215D122F400664A8923F42A
:10185000405304EA0222324322F480668A8804EA72
:10186000022232438E8904EA06161E43CB8904EA1B
:101870000313334383808583C9888187028470BDC5
:10188000002C01400034014070B5028C22F48052DB
:101890000284058C8288838B0C8823F4E6464FF6FD
:1018A000FF7303EA0424344325F400560D8903EA48
:1018B000053535434E8803EA06362E43094DA842C6
:1018C00002D0094DA84205D122F480458A8903EA55
:1018D00082122A4382808483C988A0F8401006843B
:1018E00070BD0000002C014000340140828B4FF697
:1018F000FF7322F4006203EA0121114381837047E0
:1019000081877047A0F840107047818470470000BD
:1019100030B502881B4C1C4DA0420DD0A8420BD004
:10192000B0F1804F08D0194B984205D0184B98421F
:1019300002D0184B984203D122F070034A881A4310
:10194000154B984206D0154B984203D022F44073B1
:10195000CA881A4302808A8882850A880285A04242
:101960000AD0A84208D00E4A904205D00D4A9042B3
:1019700002D00D4A904201D1097A0186012181826B
:1019800030BD0000002C0140003401400004004044
:1019900000080040000C004000100040001400400F
:1019A00000400140004401400048014070B5154C22
:1019B00040F22551204600F035F800280ED0204690
:1019C00000F0BEF8104AC1B21088030406D44404E3
:1019D0004FF0000306D50A2901D0138070BD40F4F2
:1019E00000400DE00D2909D0C0F30D04074D401C47
:1019F00080B229551080C728EFD870BD40F48040D0
:101A0000108070BD003801401E00002060E50020FD
:101A10000029818902D041F4005101E021F40051F4
:101A20008181704770B501F01F0501260024C1F3C4
:101A3000421306FA05F2012B0FD0022B0FD0838A36
:101A40004FEA11210088134206FA01F600EA060067
:101A500001D000B10124204670BD8389F0E7038ADC
:101A6000EEE710B5C1F3421301F01F040121A140BC
:101A7000012B07D0022B07D01430002A026805D0B2
:101A80000A4304E00C30F8E71030F6E78A430260BE
:101A900010BD000030B50446008A85B00D464CF6F6
:101AA000FF710840E98801432182A0894EF6F311B5
:101AB0000840A9882A8911436A8902431143A181F8
:101AC000A08A4FF6FF410840A9890143A1826846D8
:101AD000FFF706FB1948844201D1039800E0029801
:101AE000A189090400EBC00101EB0010296801D5B0
:101AF000490000E08900B0FBF1F06422B0FBF2F194
:101B000009010B096FF018056B4300EB8300A389F3
:101B10001D044FF0320306D503EBC000B0FBF2F01A
:101B200000F0070005E003EB0010B0FBF2F000F05E
:101B30000F000843208105B030BD0000003801408F
:101B40008088C0F308007047FEE77047F8B50020B2
:101B5000244C014602464FF480636254491C99426A
:101B6000FBDB082301260022002102EB4207F02FB5
:101B700008D2C1EBC3054FEA850CACF1040CBCF1F3
:101B8000F00F05DD255C06FA01FC25EA0C0512E0E4
:101B9000C2EB021CDFF850E00CEB4C0C0EEB0C1C03
:101BA0000CEB850515F8045C962D05D9255C06FA25
:101BB00001FC45EA0C052554491C89B20829D6D3F5
:101BC000401C521C92B280B2802ACDD35B1E002BE7
:101BD000C9DC00210823802208460094FEF7A4FFF8
:101BE000F8BD000060E100206000002010B56FF03B
:101BF0000400FFF769FC094809490068B0FBF1F0EF
:101C00000849C0B200EB40020870C2EBC0104FF6AA
:101C1000FF7202EAC000488010BD000000000020F2
:101C200000127A001A0000200B49498848434FF0FF
:101C3000E021486100238B61086940F001000861E0
:101C40000869C20701D0C003FAD5086920F0010075
:101C500008618B61704700001A0000200B49097869
:101C600048434FF0E021486100238B61086940F050
:101C7000010008610869C20701D0C003FAD50869EC
:101C800020F0010008618B61704700001A000020FD
:101C90002DE9F04300248046DDF81C902046EF2A11
:101CA00027DA02EB420201EB8202134F52F82310B3
:101CB00039421ED002EB8401CD7B2D0616D4CD68AF
:101CC0003D4213D052F823C012F82360CCF30E4CDF
:101CD000097BB4448C4509D3C5F30E4C6144B14231
:101CE00004D3C8F8005089F80040401C641C032C41
:101CF000E0DBBDE8F08300000000FF7F04490A88B4
:101D00005206FCD5024AC1B2121D11807047000074
:101D10000038014086B0FFF769FF4FF4A060FEF77E
:101D2000DBFEFEF721FFFEF7E1FE4FF4E13000F0AD
:101D300045F8FEF77FFEFEF7CDFBFFF725F840F2F2
:101D4000DC50FFF771FF1A490020C1F8BC010246C0
:101D5000F0210846FFF7C6F8FEF748FCFEF7C6FE7E
:101D600020214AF6C870FFF7FFFB1C2544F62066C9
:101D7000104C45F2E477FFF7E9FE0F4902A8FEF7A1
:101D800061FD0498CDE90005DDE902230021A120D1
:101D900000F064F80A20FFF747FFFFF747F93146E4
:101DA0002046FFF7ADFD39462046FFF7ABFDE2E7E1
:101DB00000002442000400406000002070B5054689
:101DC00086B0012144F20400FFF77EF94FF4007061
:101DD000ADF8100003248DF8124018201D4E8DF828
:101DE000130004A93046FEF7A7FC3015ADF810002B
:101DF00004208DF8130004A93046FEF79DFC252031
:101E00008DF814008DF815408DF8164001208DF8DE
:101E1000170005A8FEF72EFE0020ADF80400ADF86F
:101E20000600ADF80800ADF80C000C200A4CADF827
:101E30000A00009569462046FFF72CFE012240F279
:101E400025512046FFF70DFE01212046FFF7E0FD5A
:101E500006B070BD00080140003801407FB588B071
:101E6000119C1C2C4AD80DEB04010022CA70882258
:101E70008DF800208DF801008DF802409DF82B00B0
:101E80008DF803009DF82A008DF804009DF82900C4
:101E90008DF805008DF806009DF82F008DF80700DD
:101EA0009DF82E008DF808009DF82D008DF8090092
:101EB0008DF80A009DF843008DF80B009DF8420054
:101EC0008DF80C009DF841008DF80D008DF80E0086
:101ED00000206D46E31C05E02E5CCA78401C3244AD
:101EE000CA70C0B29842F7D30023241D04E0E85C16
:101EF00000F006F85B1CDBB2A342F8D30CB070BD57
:101F000003490A885206FCD50149091D088070471B
:101F10000038014021F00042A2F16052B2F5801F6A
:101F200001F0004328BFD2F17F6C0BD95FEA001C9F
:101F300043EAC20242EB507018BF704728BF20F03E
:101F400001007047B2F5801FBCBF184670474FEACA
:101F5000410C1CF5001F02D2084600F0B6BA70B55D
:101F600000F02CF900000089FFF7F6BF4FF00040A9
:101F7000A0F580007047000010B591EA030F48BF3C
:101F800083F0004300F1AC81841A71EB030C05D29D
:101F9000121943EB0C03001B61EB0C01DFF824E189
:101FA0004FEA1154A4EB135C1EEA430F18BF9EEADC
:101FB000445F73D023EA0E03DCF1200E21EA0451C2
:101FC00043F4801332D322FA0CFE10EB0E0023FAF6
:101FD0000CFE41EB0E01CCF1200E03FA0EFE10EBCD
:101FE0000E0051F10001B1F5801FCCF1200E32D26C
:101FF00001EB045112FA0EF2BDE8104058BF7047D1
:10200000401C38BF5FEA420218BF7047002814BF67
:1020100020F0010041F100014FEA410313F5001FD8
:1020200038BF7047A1F1C04100F016B9012A43EB57
:102030000302ACF1200CDCF11F0E32BF4FF0000E9A
:1020400023FA0CF310EB030041EB0451B4EB115FE6
:10205000D0D0A1EB045101F5801149085FEA3000AE
:1020600001EB04510ED350F1000038BF12FA0EFEFE
:1020700008D1BDE81040C9E7401C38BF5FEA420202
:10208000CAD1C3E7BDE810404FEA410313F5001F72
:1020900038BF7047A1F1C04100F0DEB89EEA445F4E
:1020A00008D011EA5E0FBDE8104004BF01F0004106
:1020B00000207047BDE8104070B500F07FF800BF09
:1020C00064FBBE3E0000E0FF02494FF0000000F05C
:1020D00001BA00BF0000F87F491058BFC1F140416C
:1020E0005B1058BFC3F140438B42EFF30080704751
:1020F00010F0004248BF4042B0FA80F310FA03F1FA
:102100000AD0C3F11D0303F580634FEA415002EB8F
:10211000035202EBD12170474FF000007047B0FA34
:1021200080F310FA03F10AD0C3F11D0303F58063B5
:102130004FEA41504FEA035202EBD12170474FF072
:102140000000704751EA030C17D41CF5801F58BFDC
:10215000BCF5801F00F10680994218BF704708BF88
:102160009042704707D711F5801F58BF13F5801FA5
:1021700019D499427047894270471CF5801F08D5D1
:10218000BCF5801FF7D58B4218BF704708BF82424D
:1021900070474FF4001C1CEB410F38BF1CEB430F82
:1021A00001D28B42704770B500F008F892244900C4
:1021B0004FF000514FF08053FFF78EBF0EF1020E2B
:1021C0002EF0030E5EF8046B364205D4012A43EB71
:1021D000030515F5001F12D8012841EB010C1CF571
:1021E000001F0CD80ED14FEAD17C15F5001F0CEB67
:1021F0004C0C0CF1020C08BF4CEBD37C04E04FF00C
:10220000080C01E04FEAD37C0CEB4C0526FA05F6EE
:1022100006F00706B6F1040C06D20EEB860CBDE8FC
:1022200070404CF0010C6047DFE80CF0090B020233
:102230004FF000414FF00000A1F5002170BD19469C
:102240001046012851EB010418BFD4F5001484BFD7
:10225000002001F0004170BD0808A0F500114FEA10
:102260003101704753EA010C17D41CF5801F58BF89
:10227000BCF5801F00F106808B4218BF704708BF75
:102280008242704707D713F5801F58BF11F5801F92
:1022900019D48B4270479B4270471CF5801F08D5AC
:1022A000BCF5801FF7D5994218BF704708BF904210
:1022B00070474FF4001C1CEB430F38BF1CEB410F61
:1022C00001D2994270470FB40CBC03BCFFF76BBF3F
:1022D00010B591EA030F48BF83F000433FF554AEB9
:1022E000841A71EB030C07D212198CF0004C43EBEB
:1022F0000C03001B61EB0C01DFF8A4E14FEA115461
:10230000A4EB135C1EEA430F18BF9EEA445F00F083
:10231000B08023EA6E03524221EA0451C3EB6E03FC
:1023200038BF5B1EDCF1200E25D322FA0CFE10EB29
:102330000E0043FA0CFE41EB0E01CCF1200E03FA25
:102340000EFE10EB0E0051F10001CCF1200E29D44D
:1023500012FA0EF201EB0451BDE8104058BF70476D
:10236000401C1CBFB2F1004F704700280CBF491C35
:1023700020F00100704712EB020E43EB030218BF7E
:102380004FF0010E4EEA4202ACF1200CDCF11E0EC1
:1023900054D943FA0CFE10EB0E0051F1FF31CCF191
:1023A0001E0ED5D50EF1010E12FA0EFE404141EB84
:1023B000010101EB445C5FEA5C5C10D910EBDE705C
:1023C00001EB045138BFBEF1004FBDE8104018BF0B
:1023D000704700280CBF491C20F00100704730D224
:1023E0004FEAD42C11F5001124F400641BD0B1FA8B
:1023F00081F20B3AA41AA41ED2F12003914030FAC4
:1024000003F31943904001EBCC71002C01EB045114
:10241000BDE81040A8BF704701F1C0414FF0000077
:1024200001F000417047B0FA80F310FA03F100D1D7
:1024300010BDE41A173C4805C90AE4E701EB045152
:1024400010BD491001EB0451BDE810404FEA3000C7
:1024500002E04FF0000170474A0008BF0042F8D088
:10246000B2F5001F28BF704701F000414FF0000097
:1024700070479EEA445F07D011EA5E0FBDE8104046
:1024800004BF002100207047BDE8104070B5FFF781
:1024900095FE00BF40DFF63E83F0004110467047D6
:1024A0000000E0FFB0FA80F310FA03F2C3F19D03DD
:1024B0000AD0D90501EB1220530638BF704700F14E
:1024C000010008BF20F001007047FF2141EAD05011
:1024D000C00570470CF00F03092B08BF082000F05F
:1024E00059800A2B0BD0082B18BF704708BF1CF06F
:1024F000400F0AD04FF000004FF0000170471CF071
:10250000400F18BF4FF0004070471CF0100F08D06C
:1025100020F0704300F07F4242EAD3014FEA43705B
:10252000704700F0604021F07F4242EA000201F073
:102530007F4040EA727070474FF0FF0C4CF4E06C43
:102540001CEA11531CBF9CEA030C9445C2BFDA423B
:1025500001EB02517047002B0DD0BCF1000F0FD0E2
:10256000002A01F00041A4BF41F0E04141F07F6149
:102570004FF00000704701F000414FF0000070473D
:1025800050EA01334FF09B0C18BF4CF0806C7FF485
:102590009BAD70471CF4801F11D01CF4E02F03D0BA
:1025A0006FEACC31490070474FF04050EFF30082A2
:1025B00022F0704242EA000282F3008870474FF036
:1025C0000000704711001206173F185019031A78BF
:1025D000320029502C78427F4D0963E064FF65008A
:1025E0006600670013F00D810FC51411227F2303CD
:1025F0002440253026A12B9E6BAA13FF9008910141
:102600009203930094B0959D96139716987B999199
:102610009A1E9B089C209E81A606A765A865A98096
:10262000AA807E0C7F16802A814E8261836F847B14
:102630008586868E879788A489AF8AC58BD78CE8D4
:102640008D200C500EF500006826000800000020C8
:10265000600000006C010008C8260008600000202F
:10266000D8F700008801000800A24A04000000001A
:102670000000000001020304060708090000000032
:102680000000000000000000000000000204060836
:102690000000000001020304010203040607080908
:1026A000960000000000EB4200001C420000C04009
:1026B0000000E9420000EC420000C0400000E84297
:0826C000000045430000C0408A
:0400000508000131BD
:00000001FF
